:020000040000FA
:020000001828BE
:08000800FD000308FE000A08D8
:10001000FF000000A10A831203138C10211E372851
:100020003A287F088A007E088300FD0E7D0E0900B5
:10003000831203137E30920083120313C0308B00AF
:1000400083160313FF001208831603138C14831204
:1000500003179E01831203179F0183160313870161
:10006000831203138030A00020080030A3008C1CF2
:1000700037280A28A101A00C2008A306230887001E
:06008000FF30A300372849
:02400E00E4309C
:084200000100020003000400AC
:00000001FF
